S01D0000504243204C454420617272617920636F6E74726F6C2E73726563DD
S1130000B2C00000C0C00000BEC00000BCC0000000
S1130010BAC00000B8C00000B6C00000B4C0000000
S1130020B2C00000B0C00000AEC00000ACC0000010
S1130030AAC00000A8C00000A6C00000A4C0000020
S1130040A2C00000A0C000009EC000009CC0000030
S11300509AC0000098C0000096C0000094C0000040
S113006092C0000090C000008EC000008CC0000050
S11300708AC0000088C0000086C0000084C0000060
S113008082C0000080C000007EC000007CC0000070
S11300907AC0000078C0000076C0000074C0000080
S11300A072C0000070C000006EC000006CC0000090
S11300B06AC0000068C0000066C0000064C00000A0
S11300C062C0000060C000005EC000005CC00000B0
S11300D05AC0000058C0000056C0000054C00000C0
S11300E052C0000007634236B79BD8A71A39685636
S11300F018AEBAAB558C1D3CB7CC5763BD6DEDFD46
S1130100753EF6177231BF000000803F0800000002
S1130110BE922449123EABAAAA2ABECDCCCC4C3EF8
S113012000000080BEABAAAAAA3E00000000BF00E7
S11301300000803F0000000000084178D3BB4387E3
S1130140D1133D190E3CC3BD4282AD2B3E68EC82F7
S113015076BED98FE1A93E4C80EFFFBE01C4FF7F7C
S11301603F000000000011241FBECFEFD1E2DEBF2C
S1130170CDBF22E0A0E0B2E001C01D92A630B207DC
S1130180E1F737D08FC33CCF1092030210920202E2
S113019060E070E0072E000C880B990B62D09B0185
S11301A0AC0160E070E080E090E4BFD027D06093C1
S11301B000027093010286B1682366B9662351F088
S11301C080910002809304027093050295B1892BFB
S11301D085B9089560910202709103026F5F7F4FA9
S11301E07093030260930202693071059CF215B8A2
S11301F008958FEF84B915B8C7DFFECF04D0689493
S1130200B1118DC0089570D088F09F5790F0B92F28
S11302109927B751A0F0D1F0660F771F881F991F57
S11302201AF0BA95C9F712C0B13081F077D0B1E0B5
S1130230089574C0672F782F8827B85F39F0B93FC5
S1130240CCF3869577956795B395D9F73EF4909559
S11302508095709561957F4F8F4F9F4F0895E894D7
S113026009C097FB3EF490958095709561957F4FFA
S11302708F4F9F4F9923A9F0F92F96E9BB279395A8
S1130280F695879577956795B795F111F8CFFAF4B8
S1130290BB0F11F460FF1BC06F5F7F4F8F4F9F4FE9
S11302A016C0882311F096E911C0772321F09EE847
S11302B0872F762F05C0662371F096E8862F70E0AD
S11302C060E02AF09A95660F771F881FDAF7880F87
S11302D09695879597F9089557FD9058440F551FA3
S11302E059F05F3F71F04795880F97FB991F61F0B4
S11302F09F3F79F087950895121613061406551F2B
S1130300F2CF4695F1DF08C0161617061806991F96
S1130310F1CF86957105610508940895E894BB278B
S113032066277727CB0197F90895FA01EE0FFF1F8F
S113033030962105310599F16115710561F4803814
S1130340BFE39B0749F168949038810561F08038D8
S1130350BFEF9B0741F0992342F5FF3FE1053105CB
S1130360210511F1E8940894E795D901AA2329F409
S1130370AB2FBE2FF85FD0F310C0FF5F70F4A695CB
S1130380E0F7F73950F019F0FF3A38F49F779F936C
S11303900CD00F9007FC905808953EF049C060E0DF
S11303A070E080E89FE308954FE79F775F934F9352
S11303B03F932F93A7D02F913F914F915F9115D1E8
S11303C005C019F40EF02EC0A9CF32C08DDFC8F3DA
S11303D09638C0F707F80F92E8942BE33AEA48EB13
S11303E05FE711D10F920F920F924DB75EB70F9244
S11303F0C9D0E4EEF0E01FD04F915F91EF91FF91EF
S1130400E595EE1FFF1F49F0FE57E0684427EE0F05
S1130410441FFA95E1F74195550B3BD00F9007FE29
S11304202FC0089597F99F6780E870E060E0089511
S11304309FEF80EC0895DF93CF931F930F93FF9268
S1130440EF92DF927B018C01689405C0DA2EEF01F4
S1130450D8D0FE01E894A591259135914591559107
S1130460AEF3EF0137D1FE019701A801DA9479F7D1
S1130470DF90EF90FF900F911F91CF91DF9108953E
S11304809B01AC0160E070E080E89FE376C1CACFD5
S1130490DCC12ADFE8F39923D9F3940F511DBBF390
S11304A09150504094F059F0882332F0660F771F32
S11304B0881F91505040C1F79E3F510544F7880F63
S11304C0911D9695879597F908955F3FACF0983EF6
S11304D09CF0BB27869577956795B79508F4B1602E
S11304E09395C1F7BB0F58F711F460FFE8CF6F5F26
S11304F07F4F8F4F9F4FE3CF12CF0EF0A6C198CFFF
S1130500689490CFF1DEC8F39923D1F3C6F3DF9357
S1130510CF931F930F93FF92C92FDD2788232AF0CF
S11305202197660F771F881FDAF720E030E040E854
S11305305FEB9FE3883920F0803E30F021968F777F
S1130540B8D0ECE0F1E003C0B4D0E9E3F1E073DF4C
S11305508B01BE01EC01FB2E6F5771097595771F56
S1130560880B990B7EDE28E132E741E35FE349D053
S1130570AF2D9801AE01FF900F911F91CF91DF91A4
S1130580A9D07FC1FA01DC01AA0FBB1F9B01AC01FA
S1130590BF5728F422273327442750781FC0B75168
S11305A088F4AB2F0024469537952795011CA39515
S11305B0D2F3002069F0220F331F441FB395DAF3FE
S11305C00DD076C061307105A0E88A07B94630F4D1
S11305D09B01AC016627772788279078309621F015
S11305E0208331834283538308950BD04AC13BD186
S11305F028F040D118F0952309F014CF19CF112415
S11306008ECE6ADEA0F3959FD1F3950F50E0551F6F
S1130610629FF001729FBB27F00DB11D639FAA2753
S1130620F00DB11DAA1F649F6627B00DA11D661FA2
S1130630829F2227B00DA11D621F739FB00DA11DC3
S1130640621F839FA00D611D221F749F3327A00D7D
S1130650611D231F849F600D211D822F762F6A2F19
S113066011249F5750408AF0E1F088234AF0EE0F9E
S1130670FF1FBB1F661F771F881F91505040A9F7AB
S11306809E3F510570F0CECE4ACE5F3FECF3983ECC
S1130690DCF3869577956795B795F795E7959F5F12
S11306A0C1F7FE2B880F911D9695879597F90895AC
S11306B05058BB27AA270ED0E4C0D5D030F0DAD0EA
S11306C020F031F49F3F11F41EF4B2CE0EF4E09505
S11306D0E7FBA8CEE92F00DE80F3BA1762077307A1
S11306E08407950718F071F49EF518CE0EF4E09582
S11306F00B2EBA2FA02D0B01B90190010C01CA01D8
S1130700A0011124FF27591B99F0593F50F4503E82
S113071068F11A16F040A22F232F342F4427585F74
S1130720F3CF469537952795A795F0405395C9F78C
S11307307EF41F16BA0B620B730B840BBAF0915044
S1130740A1F0FF0FBB1F661F771F881FC2F70EC0E3
S1130750BA0F621F731F841F48F4879577956795B6
S1130760B795F7959E3F08F0B3CF9395880F08F09F
S11307709927EE0F9795879508950CD082C07AD06B
S113078040F071D030F021F45F3F19F04BCE51119D
S1130790C6CD4ECEA1DD98F39923C9F35523B1F309
S11307A0951B550BBB27AA2762177307840738F0DC
S11307B09F5F5F4F220F331F441FAA1FA9F333D03B
S11307C00E2E3AF0E0E830D091505040E695001CEF
S11307D0CAF729D0FE2F27D0660F771F881FBB1FAB
S11307E0261737074807AB07B0E809F0BB0B802D85
S11307F0BF01FF2793585F4F2AF09E3F510568F0D1
S113080011CE8DCD5F3FECF3983EDCF38695779562
S11308106795B795F7959F5FC9F7880F911D9695D2
S1130820879597F90895E1E0660F771F881FBB1F2E
S1130830621773078407BA0720F0621B730B840BDB
S1130840BA0BEE1F88F7E09508959F3F31F0915061
S113085020F4879577956795B795880F911D9695A0
S1130860879597F9089500240A9416161706180612
S11308700906089500240A941216130614060506A0
S11308800895092E0394000C11F4882352F0BB0F31
S113089040F4BF2B11F460FF04C06F5F7F4F8F4F94
S10B08A09F4F0895F894FFCF67
S9030000FC
